:100000000C9454000C947C000C947C000C947C00A8
:100010000C947C000C947C000C947C000C947C0070
:100020000C947C000C947E030C947C000C947C005B
:100030000C947C000C947C000C947C000C947C0050
:100040000C9434030C947C000C9402030C94DC029A
:100050000C947C000C947C000C947C000C947C0030
:100060000C947C000C947C0000000000240027000D
:100070002A00010204081020408001020408102018
:1000800001020408102000000000250028002B00B9
:10009000040404040404040402020202020203032E
:1000A00003030303FB03BF0511241FBECFEFD8E0FA
:1000B000DEBFCDBF23E0ACE1B1E001C01D92A33DA6
:1000C000B207E1F711E0A0E0B1E0E4EAF0E102C03C
:1000D00005900D92AC31B107D9F710E0C3E5D0E03F
:1000E00004C02197FE010E943806C235D107C9F726
:1000F0000E942B040C9445080C940000CF92DF92D0
:10010000EF92FF920F931F93CF93DF936C017A01CD
:100110008B01C0E0D0E0CE15DF0581F0D8016D91F4
:100120008D01D601ED91FC910190F081E02DC60189
:100130000995892B11F02196EECF7E01C701DF9141
:10014000CF911F910F91FF90EF90DF90CF90089586
:10015000089580E090E00895FC01538D448D252F93
:1001600030E0842F90E0821B930B541710F0CF9651
:10017000089501970895FC01918D828D981761F083
:10018000828DDF01A80FB11D5D968C91928D9F5FCE
:100190009F73928F90E008958FEF9FEF0895FC0179
:1001A000918D828D981731F0828DE80FF11D858D2C
:1001B00090E008958FEF9FEF0895FC01918D228DBF
:1001C000892F90E0805C9F4F821B91098F73992744
:1001D00008958CE293E00E94DD0021E0892B09F470
:1001E00020E0822F0895FC01848DDF01A80FB11D4E
:1001F000A35ABF4F2C91848D90E001968F7399275D
:10020000848FA689B7892C93A089B1898C9183703A
:1002100080648C93938D848D981306C00288F38933
:10022000E02D80818F7D80830895EF92FF920F9360
:100230001F93CF93DF93EC0181E0888F9B8D8C8D92
:10024000981305C0E889F989808185FD26C0F62EBE
:100250000B8D10E00F5F1F4F0F731127E02E8C8D59
:10026000E8120CC00FB607FCFACFE889F989808143
:1002700085FFF5CFCE010E94F300F1CF8B8DFE01FB
:10028000E80FF11DE35AFF4FF0829FB7F8940B8FF0
:10029000EA89FB89808180620AC09FB7F894EE8961
:1002A000FF896083E889F989808183708064808315
:1002B0009FBF81E090E0DF91CF911F910F91FF9060
:1002C000EF900895CF93DF93EC01888D8823C9F0D8
:1002D000EA89FB89808185FD05C0A889B9898C914F
:1002E00086FD0FC00FB607FCF5CF808185FFF2CFEA
:1002F000A889B9898C9185FFEDCFCE010E94F300CA
:10030000E7CFDF91CF9108953FB7F8948091260110
:1003100090912701A0912801B091290126B5A89BB1
:1003200005C02F3F19F00196A11DB11D3FBFBA2F87
:10033000A92F982F8827820F911DA11DB11DBC01E7
:10034000CD0142E0660F771F881F991F4A95D1F7AC
:100350000895CF93DF931F92CDB7DEB789832091A5
:100360001C013981E0911D01F0911E01822F90E066
:1003700080959095F8940080082200824BE000C0A0
:100380005DE000005A95E9F700800822089437954F
:1003900008F4022A00824A9599F778940F90DF9129
:1003A000CF91089581E080932A032091000130E0ED
:1003B000C90180579F4FFC014491E42FF0E0EE0FFC
:1003C000FF1FEA57FF4F4591549150931E014093F0
:1003D0001D01F901EE58FF4F249120931C01249137
:1003E000FC018491882399F090E0880F991FFC010B
:1003F000E859FF4FA591B491FC01EA57FF4F859151
:1004000094918FB7F894EC91E22BEC938FBF80918D
:10041000700081608093700008950E9425080F93FA
:100420001F93CF93DF93EC0188819981009729F086
:100430002A813B812617370788F48B016F5F7F4F36
:100440000E945F07009761F0998388831B830A836A
:100450002C813D81232B11F4FC01108281E001C02D
:1004600080E0DF91CF911F910F910895EF92FF925D
:100470000F931F93CF93DF93EC017B018A01BA01A5
:100480000E940F022881398181110DC0211531058B
:1004900019F0C9010E94D606198218821D821C8299
:1004A0001B821A8206C01D830C83B701C9010E94FA
:1004B0003E08CE01DF91CF911F910F91FF90EF90F9
:1004C0000895FC0111821082138212821582148217
:1004D00040E050E06BE171E00C943602CF93DF9383
:1004E000EC016115710559F0FB0101900020E9F75D
:1004F0003197AF01461B570B0E9436020CC0888112
:100500009981009711F00E94D606198218821D82E7
:100510001C821B821A82CE01DF91CF910895EF9247
:10052000FF920F931F93CF93DF9300D0CDB7DEB729
:10053000EE24E3948CE293E00E94DD00892B69F1C4
:100540008CE293E00E94BB00F82E89831A8200910E
:10055000CD031091CE030F5F1F4FB80189EC93E0DC
:100560000E940F02882399F02091C9033091CA0399
:100570008091CD039091CE03BE016F5F7F4F820FBC
:10058000931F0E943E081093CE030093CD038AE090
:10059000F812D0CFE0922B03CDCF0F900F90DF91C8
:1005A000CF911F910F91FF90EF9008950E94E90065
:1005B00081110C948F0208951F920F920FB60F9223
:1005C00011242F933F934F935F936F937F938F9358
:1005D0009F93AF93BF93EF93FF938CE293E00E94BE
:1005E000F300FF91EF91BF91AF919F918F917F9118
:1005F0006F915F914F913F912F910F900FBE0F9090
:100600001F9018951F920F920FB60F9211242F93DF
:100610008F939F93EF93FF93E0913C03F0913D0301
:100620008081E0914203F091430382FD12C09081EA
:10063000809145038F5F8F7320914603821751F09D
:10064000E0914503F0E0E45DFC4F958F8093450316
:1006500001C08081FF91EF919F918F912F910F9019
:100660000FBE0F901F9018951F920F920FB60F920A
:1006700011242F933F938F939F93AF93BF938091B8
:10068000220190912301A0912401B0912501309184
:10069000210123E0230F2D3720F40196A11DB11D68
:1006A00005C026E8230F0296A11DB11D209321014C
:1006B0008093220190932301A0932401B0932501FC
:1006C0008091260190912701A0912801B0912901E4
:1006D0000196A11DB11D8093260190932701A0933F
:1006E0002801B0932901BF91AF919F918F913F91C4
:1006F0002F910F900FBE0F901F90189578941F9216
:100700000F920FB60F9211242F933F934F935F9345
:100710006F937F938F939F93AF93BF93CF93DF9309
:10072000EF93FF93809170008E7F80937000CFE7EE
:10073000D0E080911F0190912001009729F5C332EC
:10074000D10508F440C0A397E0911D01F0911E016E
:10075000908180911C018095892380838BE09AE2AF
:100760009A95F1F700C08150D1F7E0911D01F09109
:100770001E01908180911C01892B80838AE28A95D9
:10078000F1F700C080E008C0CB30D105E0F02B9736
:10079000FC01E75DFE4F80810E94A90180911F014D
:1007A0009091200101969093200180931F01209148
:1007B0000101309102012817390708F0BACF1092D1
:1007C000200110921F018091700081608093700061
:1007D000FF91EF91DF91CF91BF91AF919F918F9159
:1007E0007F916F915F914F913F912F910F900FBE2D
:1007F0000F901F901895ECE2F3E01382128288EEBE
:1008000093E0A0E0B0E084839583A683B7838DE076
:1008100091E09183808385EC90E09587848784ECD8
:1008200090E09787868780EC90E0918B808B81ECBD
:1008300090E0938B828B82EC90E0958B848B86EC9E
:1008400090E0978B868B118E128E138E148E89EC0E
:1008500093E00C946102CF93DF93CDB7DEB72C9772
:100860000FB6F894DEBF0FBECDBF789484B582601A
:1008700084BD84B5816084BD85B5826085BD85B544
:10088000816085BD80916E00816080936E001092C2
:10089000810080918100826080938100809181003D
:1008A00081608093810080918000816080938000CE
:1008B0008091B10084608093B1008091B00081602C
:1008C0008093B00080917A00846080937A00809158
:1008D0007A00826080937A0080917A0081608093B0
:1008E0007A0080917A00806880937A001092C1002B
:1008F00083E0809300018BE090E09093020180936D
:10090000010180912A03811102C00E94D2010E943C
:1009100084014B015C0185E0C82ED12CE12CF12C27
:100920000E948401DC01CB0188199909AA09BB093D
:10093000883E9340A105B10598F321E0C21AD10881
:10094000E108F10838EE830E33E0931EA11CB11CC0
:10095000C114D104E104F10419F7E0913C03F091D2
:100960003D0382E08083E0913803F09139031082E7
:10097000E0913A03F0913B038FEC808310924403A3
:10098000E0914003F091410386E08083E0913E03D3
:10099000F0913F03808180618083E0913E03F0917C
:1009A0003F03808188608083E0913E03F0913F03A4
:1009B000808180688083E0913E03F0913F038081D5
:1009C0008F7D808364E170E089EC93E00E940F02E8
:1009D00080912B03882309F4CFC08091CD0390919F
:1009E000CE03892B81F00091C9031091CA0360E204
:1009F00070E0C8010E943308009729F09C01201B79
:100A0000310B890102C00FEF1FEFCE0107960E9444
:100A100061028091CD039091CE030097E1F08017A1
:100A2000910708F48C01E091C903F091CA03E00F2B
:100A3000F11FF08010826091C9037091CA03CE014A
:100A400007960E946E028091C9039091CA03FC012F
:100A5000E00FF11FF0820091C9031091CA03809149
:100A6000CD039091CE036801C80ED91E892B61F089
:100A700060E270E0C8010E943308009729F09C01F1
:100A8000201B310B890102C00FEF1FEF0F5F1F4FBB
:100A9000C016D10628F4902F812F8601C92ED82E9A
:100AA000CE0101960E946102E091CD03F091CE0348
:100AB0000E171F07F0F47F01CE16DF0608F476014B
:100AC000E091C903F091CA03EE0DFF1DD0801082A2
:100AD0006091C9037091CA03600F711FCE01019626
:100AE0000E946E02E091C903F091CA03EE0DFF1D52
:100AF000D0828F819885009729F00E94C5056B01EF
:100B00007C0103C0C12CD12C760189819A81009788
:100B100021F00E94C505162F01C010E080912A0324
:100B2000811102C00E94D201C6010197811532E0F5
:100B3000930780F420910101309102012C153D05AD
:100B400008F496013093020120930101FC01E65D57
:100B5000FE4F108340E050E06BE171E089EC93E0E0
:100B60000E94360210922B0389819A810E94D60638
:100B70008F8198850E94D6060E94D60229CF809147
:100B8000C9039091CA030C94D6061F93FC019927C0
:100B90008827BC01E89411911032E9F3193010F064
:100BA0001E30C8F31B3251F01D3249F4689406C060
:100BB0000E94EC05610F711D811D911D1191105353
:100BC0001A30B0F33EF490958095709561957F4F03
:100BD0008F4F9F4F1F910895592F482F372F262F42
:100BE000660F771F881F991F660F771F881F991F31
:100BF000620F731F841F951F660F771F881F991F31
:100C000008952F923F924F925F926F927F928F92B0
:100C10009F92AF92BF92CF92DF92EF92FF920F938B
:100C20001F93CF93DF93CDB7DEB7CA1BDB0B0FB695
:100C3000F894DEBF0FBECDBF09942A883988488852
:100C40005F846E847D848C849B84AA84B984C884E8
:100C5000DF80EE80FD800C811B81AA81B981CE0FDF
:100C6000D11D0FB6F894DEBF0FBECDBFED010895C4
:100C7000EE0FFF1F0590F491E02D09940F931F9341
:100C8000CF93DF938230910510F482E090E0E09101
:100C9000D103F091D20320E030E0A0E0B0E0309743
:100CA00019F1408151810281138148175907C8F019
:100CB0008417950769F4109731F012960C931297E8
:100CC00013961C9327C00093D1031093D20322C024
:100CD0002115310519F04217530718F49A01BD0187
:100CE000EF01DF01F801DBCF21153105F9F0281BF9
:100CF000390B2430310580F48A819B81611571059F
:100D000021F0FB019383828304C09093D2038093EC
:100D1000D103FE01329644C0FE01E20FF31F81931E
:100D2000919322503109398328833AC02091CF030F
:100D30003091D003232B41F420910501309106011D
:100D40003093D0032093CF0320910301309104010D
:100D50002115310541F42DB73EB74091070150915F
:100D60000801241B350BE091CF03F091D003E2176B
:100D7000F307A0F42E1B3F0B2817390778F0AC01BE
:100D80004E5F5F4F2417350748F04E0F5F1F50939B
:100D9000D0034093CF038193919302C0E0E0F0E051
:100DA000CF01DF91CF911F910F910895CF93DF93E2
:100DB000009709F481C0FC01329713821282A0913E
:100DC000D103B091D203109781F420813181820F39
:100DD000931F2091CF033091D0032817390751F585
:100DE000F093D003E093CF0367C0ED0120E030E043
:100DF000CE17DF0740F44A815B819E014115510502
:100E0000F1F0EA01F5CFD383C28340815181840F91
:100E1000951FC817D90759F488819981840F951FA8
:100E20000296918380838A819B819383828321159B
:100E3000310529F4F093D203E093D1033DC0E901D9
:100E4000FB83EA8349915991C40FD51FEC17FD0725
:100E500061F480819181840F951F0296E901998345
:100E60008883828193819B838A83E0E0F0E01296FD
:100E70008D919C911397009719F0FD01DC01F7CF3C
:100E80008D919C9111979D012E5F3F4F820F931F73
:100E90002091CF033091D0032817390769F4309798
:100EA00029F41092D2031092D10302C0138212824D
:100EB000B093D003A093CF03DF91CF910895A0E02A
:100EC000B0E0E5E6F7E00C940506EC01009721F4AC
:100ED000CB010E943E06B4C0FC01E60FF71F9C0147
:100EE00022503109E217F30708F4A8C0D9010D9187
:100EF0001C91119706171707B0F00530110508F47B
:100F00009BC0C80104978617970708F495C0025044
:100F10001109061B170B019311936D937C93CF015D
:100F20000E94D60689C05B01A01AB10A4C01800E4E
:100F3000911EA091D103B091D203612C712CE12CB0
:100F4000F12C109709F446C08D919C911197A8152A
:100F5000B905B1F56C0142E0C40ED11CCA14DB0422
:100F600078F14C018A189B08640142E0C40ED11C40
:100F70001296BC9012971396AC91B5E0CB16D104A3
:100F800040F0B282A38391828082D9016D937C93D9
:100F900009C00E5F1F4F800F911FF901918380835D
:100FA000EB2DFA2FE114F10431F0D7011396FC93E5
:100FB000EE93129741C0F093D203E093D1033CC06B
:100FC0006816790608F43C017D0112960D90BC91DB
:100FD000A02DB7CF8091CF039091D00388169906AA
:100FE000E1F466167706C8F480910301909104013C
:100FF000009741F48DB79EB74091070150910801C9
:10100000841B950BE817F907C8F4F093D003E0931D
:10101000CF03F901718360830FC0CB010E943E06AC
:101020007C01009759F0A801BE010E942A08CE0158
:101030000E94D606C70104C0CE0102C080E090E045
:10104000CDB7DEB7EEE00C94210681E090E0F89495
:101050000C944508FB01DC0102C001900D92415047
:101060005040D8F70895FC018191861721F088231C
:10107000D9F7992708953197CF010895FB01DC0135
:1010800001900D920020E1F7089510E0C3E5D0E053
:1010900004C0FE010E9438062196C435D107C9F765
:0410A000F894FFCFF2
:1010A4000310000000D30380000000000015017E3F
:0C10B40000AC006201DD00BB00CF0000BA
:00000001FF
