:100000000C9435000C945D000C945D000C945D0024
:100010000C945D000C945D000C945D000C945D00EC
:100020000C945D000C94A1020C945D000C945D0096
:100030000C945D000C945D000C945D000C945D00CC
:100040000C9457020C945D000C9425020C94FF0153
:100050000C945D000C945D000C945D000C945D00AC
:100060000C945D000C945D000C0311241FBECFEFB7
:10007000D8E0DEBFCDBF24E0A8E3B1E001C01D920F
:10008000AC32B207E1F711E0A0E0B1E0E0EFFAE056
:1000900002C005900D92A833B107D9F710E0C5E36F
:1000A000D0E004C02197FE010E946B05C433D10744
:1000B000C9F70E944B030C9476050C940000CF9274
:1000C000DF92EF92FF920F931F93CF93DF936C0118
:1000D0007A018B01C0E0D0E0CE15DF0581F0D801B8
:1000E0006D918D01D601ED91FC910190F081E02D93
:1000F000C6010995892B11F02196EECF7E01C7012B
:10010000DF91CF911F910F91FF90EF90DF90CF90F3
:100110000895089580E090E00895FC01538D448D8A
:10012000252F30E0842F90E0821B930B541710F0A2
:10013000CF96089501970895FC01918D828D9817AF
:1001400061F0828DDF01A80FB11D5D968C91928DBB
:100150009F5F9F73928F90E008958FEF9FEF0895B8
:10016000FC01918D828D981731F0828DE80FF11D81
:10017000858D90E008958FEF9FEF0895FC01918D9C
:10018000228D892F90E0805C9F4F821B91098F7395
:100190009927089587E493E00E94BE0021E0892B0F
:1001A00009F420E0822F0895FC01848DDF01A80F5F
:1001B000B11DA35ABF4F2C91848D90E001968F738F
:1001C0009927848FA689B7892C93A089B1898C91AE
:1001D000837080648C93938D848D981306C00288FD
:1001E000F389E02D80818F7D80830895EF92FF92C7
:1001F0000F931F93CF93DF93EC0181E0888F9B8D4A
:100200008C8D981305C0E889F989808185FD26C009
:10021000F62E0B8D10E00F5F1F4F0F731127E02E8E
:100220008C8DE8120CC00FB607FCFACFE889F9896B
:10023000808185FFF5CFCE010E94D400F1CF8B8D58
:10024000FE01E80FF11DE35AFF4FF0829FB7F894CB
:100250000B8FEA89FB89808180620AC09FB7F8947E
:10026000EE89FF896083E889F989808183708064E1
:1002700080839FBF81E090E0DF91CF911F910F912C
:10028000FF90EF900895CF93DF93EC01888D882342
:10029000C9F0EA89FB89808185FD05C0A889B989F3
:1002A0008C9186FD0FC00FB607FCF5CF808185FFCE
:1002B000F2CFA889B9898C9185FFEDCFCE010E943C
:1002C000D400E7CFDF91CF91089580E090E0892BB3
:1002D00029F00E94CA0081110C94000008952FB7E4
:1002E000F89460913F037091400380914103909195
:1002F00042032FBF0895CF93DF931F92CDB7DEB790
:100300008983398120E08FEF9FEFE0E0F0E0F894FF
:100310000080082200824BE000C05DE000005A959A
:10032000E9F7008008220894379508F4022A008231
:100330004A9599F778940F90DF91CF9108956115C0
:10034000710579F0FB0101900020E9F73197AF01C9
:10035000461B570BDC01ED91FC910280F381E02DEF
:10036000099480E090E008958F929F92AF92BF929F
:10037000EF92FF920F931F93CF93DF93CDB7DEB72A
:10038000A1970FB6F894DEBF0FBECDBF7C01FA0176
:10039000CB0119A2223008F42AE08E010F5D1F4F15
:1003A000822E912CA12CB12CBF01A50194010E9499
:1003B0004905F901CA01015011096A3014F4605D60
:1003C00001C0695CD8016C93232B242B252B61F78A
:1003D000B801C7010E949F01A1960FB6F894DEBF35
:1003E0000FBECDBFDF91CF911F910F91FF90EF9086
:1003F000BF90AF909F908F9008950E9471051F92BB
:100400000F920FB60F9211242F933F934F935F9348
:100410006F937F938F939F93AF93BF93EF93FF93CC
:1004200087E493E00E94D400FF91EF91BF91AF91D8
:100430009F918F917F916F915F914F913F912F91FC
:100440000F900FBE0F901F9018951F920F920FB62E
:100450000F9211242F938F939F93EF93FF93E0912B
:100460005703F09158038081E0915D03F0915E03A2
:1004700082FD12C09081809160038F5F8F73209105
:100480006103821751F0E0916003F0E0E95BFC4FFB
:10049000958F8093600301C08081FF91EF919F91C0
:1004A0008F912F910F900FBE0F901F9018951F9254
:1004B0000F920FB60F9211242F933F938F939F9318
:1004C000AF93BF9380913F0390914003A09141036C
:1004D000B091420330913E0323E0230F2D3720F4E7
:1004E0000196A11DB11D05C026E8230F0296A11D8E
:1004F000B11D20933E0380933F0390934003A0934C
:100500004103B093420380913A0390913B03A09141
:100510003C03B0913D030196A11DB11D80933A03A8
:1005200090933B03A0933C03B0933D03BF91AF91E5
:100530009F918F913F912F910F900FBE0F901F9021
:10054000189578941F920F920FB60F9211242F9343
:100550003F934F935F936F937F938F939F93AF934B
:10056000BF93CF93DF93EF93FF93809170008E7FC3
:1005700080937000CFE7D0E08091380390913903E9
:100580000097C9F4C332D10578F1A3978091000098
:10059000809300008BE09AE29A95F1F700C08150B9
:1005A000D1F780910000809300008AE28A95F1F7EC
:1005B00000C080E008C0CB30D105B0F02B97FC0123
:1005C000E95CFE4F80810E947B018091380390910D
:1005D000390301969093390380933803419760F271
:1005E00010923903109238038091700081608093DB
:1005F0007000FF91EF91DF91CF91BF91AF919F91EB
:100600008F917F916F915F914F913F912F910F90BB
:100610000FBE0F901F901895E7E4F3E0138212824B
:1006200088EE93E0A0E0B0E084839583A683B7834F
:1006300084E091E09183808385EC90E095878487C6
:1006400084EC90E09787868780EC90E0918B808B9C
:1006500081EC90E0938B828B82EC90E0958B848B85
:1006600086EC90E0978B868B118E128E138E148EF3
:10067000E4EEF3E016821782108611861286138646
:100680001486158616861786108A118A128A138A8E
:10069000148A158A0895789484B5826084BD84B5DF
:1006A000816084BD85B5826085BD85B5816085BD6D
:1006B00080916E00816080936E0010928100809125
:1006C00081008260809381008091810081608093AD
:1006D0008100809180008160809380008091B100D2
:1006E00084608093B1008091B00081608093B000FD
:1006F00080917A00846080937A0080917A00826091
:1007000080937A0080917A00816080937A00809152
:100710007A00806880937A001092C10010922804B9
:100720001092290410922A0410922B041092E603CE
:100730001092E7031092E8031092E9030E946F0100
:100740006B017C014B015C0128EB820E2BE0921EB9
:10075000A11CB11C0E946F016C157D058E059F05C3
:1007600028F086169706A806B906A0F787E493E056
:100770009093270480932604E0915703F091580347
:1007800082E08083E0915303F09154031082E09162
:100790005503F091560380E1808310925F03E0914E
:1007A0005B03F0915C0386E08083E0915903F09154
:1007B0005A03808180618083E0915903F0915A034C
:1007C000808188608083E0915903F0915A03808191
:1007D00080688083E0915903F0915A0380818F7D76
:1007E00080830E946F016093E6037093E703809318
:1007F000E8039093E90362E171E08091260490910F
:1008000027040E949F010E946F016B017C014B0134
:100810005C013AE0830E911CA11CB11C0E946F0187
:100820006C157D058E059F0528F086169706A8068F
:10083000B906A0F781E08093FA0384EF882E99240B
:100840009394A12CB12C0E946F01672B682B692B0C
:1008500041F40E946F01623071058105910508F431
:100860000FC10E946F01C0904303D0904403E090F9
:100870004503F09046036C157D058E059F0540F4F9
:10088000609343037093440380934503909346031E
:10089000C0904303D0904403E0904503F09046039A
:1008A0009B01AC012C193D094E095F0969017A01D0
:1008B0003AEFC316D104E104F10408F4E1C06093F7
:1008C00043037093440380934503909346038092BF
:1008D000F2039092F303A092F403B092F503109206
:1008E000F6031092F7031092F8031092F903809127
:1008F000EA039091EB03A091EC03B091ED03809398
:10090000EE039093EF03A093F003B093F1030E94E2
:100910006F016093EA037093EB038093EC03909371
:10092000ED030E946F016093E6037093E7038093E9
:10093000E8039093E9030E946F016B017C0164E27C
:1009400071E080912604909127040E949F012AE083
:1009500041E050E060E070E080912604909127042F
:100960000E94B4016BE271E080912604909127040B
:100970000E949F012AE0B701A60180912604909170
:1009800027040E94B4016DE271E0809126049091E9
:1009900027040E949F018091EA039091EB03A091AC
:1009A000EC03B091ED03B701A601481B590B6A0B8C
:1009B0007B0B2AE080912604909127040E94B401C9
:1009C0006DE271E080912604909127040E949F01BE
:1009D0004091EA035091EB036091EC037091ED03B9
:1009E0008091EE039091EF03A091F003B091F10399
:1009F000481B590B6A0B7B0B2AE0809126049091CF
:100A000027040E94B4016FE271E080912604909166
:100A100027040E949F010E946F01AB01BC012AE0E4
:100A200080912604909127040E94B401E09026044E
:100A3000F090270461E371E0C7010E949F0161E229
:100A400071E0C7010E949F010E946F016B017C0150
:100A50002B013C0145E0440E511C611C711C0E949D
:100A60006F016C157D058E059F0568F40E946F016E
:100A70006093EA037093EB038093EC039093ED0390
:100A80000E946501E0CE461657066806790638F7DB
:100A9000EDCFA1E21A2EAA1BBB1BFD010DC0AA1FA0
:100AA000BB1FEE1FFF1FA217B307E407F50720F0D7
:100AB000A21BB30BE40BF50B661F771F881F991F52
:100AC0001A9469F760957095809590959B01AC019B
:100AD000BD01CF010895EE0FFF1F0590F491E02DA9
:100AE000099481E090E0F8940C947605F894FFCF97
:100AF00000000000F6005F008D004301BE009C0076
:100B0000B000564D4450565F317C315F564D4450D5
:100B1000560D0A00564D4450455F003A323A007C6B
:080B2000005F564D44504500F2
:107E0000112484B714BE81FFF0D085E080938100F7
:107E100082E08093C00088E18093C10086E0809377
:107E2000C20080E18093C4008EE0C9D0259A86E02C
:107E300020E33CEF91E0309385002093840096BBD3
:107E4000B09BFECF1D9AA8958150A9F7CC24DD24C4
:107E500088248394B5E0AB2EA1E19A2EF3E0BF2EE7
:107E6000A2D0813461F49FD0082FAFD0023811F036
:107E7000013811F484E001C083E08DD089C08234E0
:107E800011F484E103C0853419F485E0A6D080C0E4
:107E9000853579F488D0E82EFF2485D0082F10E0AE
:107EA000102F00270E291F29000F111F8ED06801E7
:107EB0006FC0863521F484E090D080E0DECF843638
:107EC00009F040C070D06FD0082F6DD080E0C81688
:107ED00080E7D80618F4F601B7BEE895C0E0D1E017
:107EE00062D089930C17E1F7F0E0CF16F0E7DF06D8
:107EF00018F0F601B7BEE89568D007B600FCFDCFD4
:107F0000A601A0E0B1E02C9130E011968C91119780
:107F100090E0982F8827822B932B1296FA010C0160
:107F200087BEE89511244E5F5F4FF1E0A038BF0790
:107F300051F7F601A7BEE89507B600FCFDCF97BE46
:107F4000E89526C08437B1F42ED02DD0F82E2BD052
:107F50003CD0F601EF2C8F010F5F1F4F84911BD097
:107F6000EA94F801C1F70894C11CD11CFA94CF0C13
:107F7000D11C0EC0853739F428D08EE10CD085E9AC
:107F80000AD08FE07ACF813511F488E018D01DD067
:107F900080E101D065CF982F8091C00085FFFCCF94
:107FA0009093C60008958091C00087FFFCCF809118
:107FB000C00084FD01C0A8958091C6000895E0E648
:107FC000F0E098E1908380830895EDDF803219F02E
:107FD00088E0F5DFFFCF84E1DECF1F93182FE3DFCA
:107FE0001150E9F7F2DF1F91089580E0E8DFEE27F6
:047FF000FF270994CA
:027FFE00040479
:0400000300007E007B
:00000001FF